{
  "address": "0x46e98FFE40E408bA6412bEb670507e083C8B95ff",
  "abi": [
    {
      "inputs": [
        {
          "internalType": "address[]",
          "name": "recipients",
          "type": "address[]"
        },
        {
          "internalType": "uint256[]",
          "name": "values",
          "type": "uint256[]"
        },
        {
          "internalType": "contract IForwarderRegistry",
          "name": "forwarderRegistry",
          "type": "address"
        },
        {
          "internalType": "address",
          "name": "universalForwarder",
          "type": "address"
        }
      ],
      "stateMutability": "nonpayable",
      "type": "constructor"
    },
    {
      "anonymous": false,
      "inputs": [
        {
          "indexed": true,
          "internalType": "address",
          "name": "_owner",
          "type": "address"
        },
        {
          "indexed": true,
          "internalType": "address",
          "name": "_spender",
          "type": "address"
        },
        {
          "indexed": false,
          "internalType": "uint256",
          "name": "_value",
          "type": "uint256"
        }
      ],
      "name": "Approval",
      "type": "event"
    },
    {
      "anonymous": false,
      "inputs": [
        {
          "indexed": true,
          "internalType": "address",
          "name": "previousOwner",
          "type": "address"
        },
        {
          "indexed": true,
          "internalType": "address",
          "name": "newOwner",
          "type": "address"
        }
      ],
      "name": "OwnershipTransferred",
      "type": "event"
    },
    {
      "anonymous": false,
      "inputs": [
        {
          "indexed": true,
          "internalType": "address",
          "name": "_from",
          "type": "address"
        },
        {
          "indexed": true,
          "internalType": "address",
          "name": "_to",
          "type": "address"
        },
        {
          "indexed": false,
          "internalType": "uint256",
          "name": "_value",
          "type": "uint256"
        }
      ],
      "name": "Transfer",
      "type": "event"
    },
    {
      "inputs": [],
      "name": "DECIMALS",
      "outputs": [
        {
          "internalType": "uint8",
          "name": "",
          "type": "uint8"
        }
      ],
      "stateMutability": "view",
      "type": "function"
    },
    {
      "inputs": [],
      "name": "DOMAIN_SEPARATOR",
      "outputs": [
        {
          "internalType": "bytes32",
          "name": "",
          "type": "bytes32"
        }
      ],
      "stateMutability": "view",
      "type": "function"
    },
    {
      "inputs": [],
      "name": "NAME",
      "outputs": [
        {
          "internalType": "string",
          "name": "",
          "type": "string"
        }
      ],
      "stateMutability": "view",
      "type": "function"
    },
    {
      "inputs": [],
      "name": "SYMBOL",
      "outputs": [
        {
          "internalType": "string",
          "name": "",
          "type": "string"
        }
      ],
      "stateMutability": "view",
      "type": "function"
    },
    {
      "inputs": [
        {
          "internalType": "address",
          "name": "owner",
          "type": "address"
        },
        {
          "internalType": "address",
          "name": "spender",
          "type": "address"
        }
      ],
      "name": "allowance",
      "outputs": [
        {
          "internalType": "uint256",
          "name": "",
          "type": "uint256"
        }
      ],
      "stateMutability": "view",
      "type": "function"
    },
    {
      "inputs": [
        {
          "internalType": "address",
          "name": "spender",
          "type": "address"
        },
        {
          "internalType": "uint256",
          "name": "value",
          "type": "uint256"
        }
      ],
      "name": "approve",
      "outputs": [
        {
          "internalType": "bool",
          "name": "",
          "type": "bool"
        }
      ],
      "stateMutability": "nonpayable",
      "type": "function"
    },
    {
      "inputs": [
        {
          "internalType": "address",
          "name": "account",
          "type": "address"
        }
      ],
      "name": "balanceOf",
      "outputs": [
        {
          "internalType": "uint256",
          "name": "",
          "type": "uint256"
        }
      ],
      "stateMutability": "view",
      "type": "function"
    },
    {
      "inputs": [
        {
          "internalType": "address[]",
          "name": "recipients",
          "type": "address[]"
        },
        {
          "internalType": "uint256[]",
          "name": "values",
          "type": "uint256[]"
        }
      ],
      "name": "batchTransfer",
      "outputs": [
        {
          "internalType": "bool",
          "name": "",
          "type": "bool"
        }
      ],
      "stateMutability": "nonpayable",
      "type": "function"
    },
    {
      "inputs": [
        {
          "internalType": "address",
          "name": "from",
          "type": "address"
        },
        {
          "internalType": "address[]",
          "name": "recipients",
          "type": "address[]"
        },
        {
          "internalType": "uint256[]",
          "name": "values",
          "type": "uint256[]"
        }
      ],
      "name": "batchTransferFrom",
      "outputs": [
        {
          "internalType": "bool",
          "name": "",
          "type": "bool"
        }
      ],
      "stateMutability": "nonpayable",
      "type": "function"
    },
    {
      "inputs": [],
      "name": "decimals",
      "outputs": [
        {
          "internalType": "uint8",
          "name": "",
          "type": "uint8"
        }
      ],
      "stateMutability": "view",
      "type": "function"
    },
    {
      "inputs": [
        {
          "internalType": "address",
          "name": "spender",
          "type": "address"
        },
        {
          "internalType": "uint256",
          "name": "subtractedValue",
          "type": "uint256"
        }
      ],
      "name": "decreaseAllowance",
      "outputs": [
        {
          "internalType": "bool",
          "name": "",
          "type": "bool"
        }
      ],
      "stateMutability": "nonpayable",
      "type": "function"
    },
    {
      "inputs": [],
      "name": "deploymentChainId",
      "outputs": [
        {
          "internalType": "uint256",
          "name": "",
          "type": "uint256"
        }
      ],
      "stateMutability": "view",
      "type": "function"
    },
    {
      "inputs": [
        {
          "internalType": "address",
          "name": "spender",
          "type": "address"
        },
        {
          "internalType": "uint256",
          "name": "addedValue",
          "type": "uint256"
        }
      ],
      "name": "increaseAllowance",
      "outputs": [
        {
          "internalType": "bool",
          "name": "",
          "type": "bool"
        }
      ],
      "stateMutability": "nonpayable",
      "type": "function"
    },
    {
      "inputs": [
        {
          "internalType": "address",
          "name": "forwarder",
          "type": "address"
        }
      ],
      "name": "isTrustedForwarder",
      "outputs": [
        {
          "internalType": "bool",
          "name": "",
          "type": "bool"
        }
      ],
      "stateMutability": "view",
      "type": "function"
    },
    {
      "inputs": [],
      "name": "name",
      "outputs": [
        {
          "internalType": "string",
          "name": "",
          "type": "string"
        }
      ],
      "stateMutability": "view",
      "type": "function"
    },
    {
      "inputs": [
        {
          "internalType": "address",
          "name": "",
          "type": "address"
        }
      ],
      "name": "nonces",
      "outputs": [
        {
          "internalType": "uint256",
          "name": "",
          "type": "uint256"
        }
      ],
      "stateMutability": "view",
      "type": "function"
    },
    {
      "inputs": [],
      "name": "owner",
      "outputs": [
        {
          "internalType": "address",
          "name": "",
          "type": "address"
        }
      ],
      "stateMutability": "view",
      "type": "function"
    },
    {
      "inputs": [
        {
          "internalType": "address",
          "name": "owner",
          "type": "address"
        },
        {
          "internalType": "address",
          "name": "spender",
          "type": "address"
        },
        {
          "internalType": "uint256",
          "name": "value",
          "type": "uint256"
        },
        {
          "internalType": "uint256",
          "name": "deadline",
          "type": "uint256"
        },
        {
          "internalType": "uint8",
          "name": "v",
          "type": "uint8"
        },
        {
          "internalType": "bytes32",
          "name": "r",
          "type": "bytes32"
        },
        {
          "internalType": "bytes32",
          "name": "s",
          "type": "bytes32"
        }
      ],
      "name": "permit",
      "outputs": [],
      "stateMutability": "nonpayable",
      "type": "function"
    },
    {
      "inputs": [
        {
          "internalType": "address[]",
          "name": "accounts",
          "type": "address[]"
        },
        {
          "internalType": "address[]",
          "name": "tokens",
          "type": "address[]"
        },
        {
          "internalType": "uint256[]",
          "name": "amounts",
          "type": "uint256[]"
        }
      ],
      "name": "recoverERC20s",
      "outputs": [],
      "stateMutability": "nonpayable",
      "type": "function"
    },
    {
      "inputs": [
        {
          "internalType": "address[]",
          "name": "accounts",
          "type": "address[]"
        },
        {
          "internalType": "address[]",
          "name": "contracts",
          "type": "address[]"
        },
        {
          "internalType": "uint256[]",
          "name": "tokenIds",
          "type": "uint256[]"
        }
      ],
      "name": "recoverERC721s",
      "outputs": [],
      "stateMutability": "nonpayable",
      "type": "function"
    },
    {
      "inputs": [
        {
          "internalType": "address",
          "name": "to",
          "type": "address"
        },
        {
          "internalType": "uint256",
          "name": "amount",
          "type": "uint256"
        },
        {
          "internalType": "bytes",
          "name": "data",
          "type": "bytes"
        }
      ],
      "name": "safeTransfer",
      "outputs": [
        {
          "internalType": "bool",
          "name": "",
          "type": "bool"
        }
      ],
      "stateMutability": "nonpayable",
      "type": "function"
    },
    {
      "inputs": [
        {
          "internalType": "address",
          "name": "from",
          "type": "address"
        },
        {
          "internalType": "address",
          "name": "to",
          "type": "address"
        },
        {
          "internalType": "uint256",
          "name": "amount",
          "type": "uint256"
        },
        {
          "internalType": "bytes",
          "name": "data",
          "type": "bytes"
        }
      ],
      "name": "safeTransferFrom",
      "outputs": [
        {
          "internalType": "bool",
          "name": "",
          "type": "bool"
        }
      ],
      "stateMutability": "nonpayable",
      "type": "function"
    },
    {
      "inputs": [
        {
          "internalType": "string",
          "name": "tokenURI_",
          "type": "string"
        }
      ],
      "name": "setTokenURI",
      "outputs": [],
      "stateMutability": "nonpayable",
      "type": "function"
    },
    {
      "inputs": [
        {
          "internalType": "bytes4",
          "name": "interfaceId",
          "type": "bytes4"
        }
      ],
      "name": "supportsInterface",
      "outputs": [
        {
          "internalType": "bool",
          "name": "",
          "type": "bool"
        }
      ],
      "stateMutability": "view",
      "type": "function"
    },
    {
      "inputs": [],
      "name": "symbol",
      "outputs": [
        {
          "internalType": "string",
          "name": "",
          "type": "string"
        }
      ],
      "stateMutability": "view",
      "type": "function"
    },
    {
      "inputs": [],
      "name": "tokenURI",
      "outputs": [
        {
          "internalType": "string",
          "name": "",
          "type": "string"
        }
      ],
      "stateMutability": "view",
      "type": "function"
    },
    {
      "inputs": [],
      "name": "totalSupply",
      "outputs": [
        {
          "internalType": "uint256",
          "name": "",
          "type": "uint256"
        }
      ],
      "stateMutability": "view",
      "type": "function"
    },
    {
      "inputs": [
        {
          "internalType": "address",
          "name": "to",
          "type": "address"
        },
        {
          "internalType": "uint256",
          "name": "value",
          "type": "uint256"
        }
      ],
      "name": "transfer",
      "outputs": [
        {
          "internalType": "bool",
          "name": "",
          "type": "bool"
        }
      ],
      "stateMutability": "nonpayable",
      "type": "function"
    },
    {
      "inputs": [
        {
          "internalType": "address",
          "name": "from",
          "type": "address"
        },
        {
          "internalType": "address",
          "name": "to",
          "type": "address"
        },
        {
          "internalType": "uint256",
          "name": "value",
          "type": "uint256"
        }
      ],
      "name": "transferFrom",
      "outputs": [
        {
          "internalType": "bool",
          "name": "",
          "type": "bool"
        }
      ],
      "stateMutability": "nonpayable",
      "type": "function"
    },
    {
      "inputs": [
        {
          "internalType": "address",
          "name": "newOwner",
          "type": "address"
        }
      ],
      "name": "transferOwnership",
      "outputs": [],
      "stateMutability": "nonpayable",
      "type": "function"
    }
  ],
  "transactionHash": "0xa440693358d7b10987045d09438c8fb9e5725a17853a371f6544a417b5c51dd7",
  "args": [
    [
      "0x28CCF125B7751e830FC0f345690806905CAA4E0a",
      "0xa62b87cd634fCeab940361e6C9584d620E904e11",
      "0x41c517C9A1051da7704D8DE3e6e642597D7e13FC",
      "0x88BB5B695535D7ACb5970FE9F9E698d16f55bf16"
    ],
    [
      "235000000000000000000000000",
      "25000000000000000000000000",
      "1600000000000000000000000000",
      "200000000000000000000000000"
    ],
    "0x71bee13e92e64701b78f059801a70857e4683acd",
    "0x56133a31f4cd01ede8c6ee780071c021bd324ad2"
  ],
  "solcInputHash": "f638f24366f84e8953f4fb333da6dbc8",
  "bytecode": "0x6101206040523480156200001257600080fd5b5060405162002e4338038062002e43833981810160405260808110156200003857600080fd5b81019080805160405193929190846401000000008211156200005957600080fd5b9083019060208201858111156200006f57600080fd5b82518660208202830111640100000000821117156200008d57600080fd5b82525081516020918201928201910280838360005b83811015620000bc578181015183820152602001620000a2565b5050505090500160405260200180516040519392919084640100000000821115620000e657600080fd5b908301906020820185811115620000fc57600080fd5b82518660208202830111640100000000821117156200011a57600080fd5b82525081516020918201928201910280838360005b83811015620001495781810151838201526020016200012f565b505050509190910160408181526020848101519482015182840183526007808552665052494d41544560c81b83860181815285518087019096529185529284019290925283519597509550339487945086939291601291620001ae9160019162000549565b508151620001c490600290602085019062000549565b507fff0000000000000000000000000000000000000000000000000000000000000060f882901b1660c05246608081905262000201818562000284565b60a05250505050606090811b6001600160601b03199081166101005291901b1660e052600780546001600160a01b0319166001600160a01b0383169081179091556040516000907f8be0079c531659141344cd1fd0a4f28419497f9722a3daafe3b4186f6b6457e0908290a3506200027a84846200030e565b50505050620005f5565b8051602091820120604080517f8b73c3c69bb8fe3d512ecc4cf759cc79239f7b179b0ffacaa9a75d522b39400f81850152808201929092527fc89efdaa54c0f20c7adf612882df0950f5a951637e0307cdcb4c672f298b8bc6606083015260808201939093523060a0808301919091528351808303909101815260c0909101909252815191012090565b81518151811462000366576040805162461bcd60e51b815260206004820152601a60248201527f45524332303a20696e636f6e73697374656e7420617272617973000000000000604482015290519081900360640190fd5b6000805b828114620004db5760008582815181106200038157fe5b6020026020010151905060006001600160a01b0316816001600160a01b03161415620003f4576040805162461bcd60e51b815260206004820152601360248201527f45524332303a207a65726f206164647265737300000000000000000000000000604482015290519081900360640190fd5b60008583815181106200040357fe5b60200260200101519050806000146200048f578381018481116200046e576040805162461bcd60e51b815260206004820152601660248201527f45524332303a2076616c756573206f766572666c6f7700000000000000000000604482015290519081900360640190fd5b6001600160a01b038316600090815260046020526040902080548301905593505b6040805182815290516001600160a01b038416916000917fddf252ad1be2c89b69c2b068fc378daa952ba7f163c4a11628f55a4df523b3ef9181900360200190a350506001016200036a565b50801562000543576006548181018181116200053e576040805162461bcd60e51b815260206004820152601660248201527f45524332303a20737570706c79206f766572666c6f7700000000000000000000604482015290519081900360640190fd5b600655505b50505050565b828054600181600116156101000203166002900490600052602060002090601f016020900481019282620005815760008555620005cc565b82601f106200059c57805160ff1916838001178555620005cc565b82800160010185558215620005cc579182015b82811115620005cc578251825591602001919060010190620005af565b50620005da929150620005de565b5090565b5b80821115620005da5760008155600101620005df565b60805160a05160c05160f81c60e05160601c6101005160601c6127f162000652600039806111e652806123ef52508061122152806123b45280612447525080610c01525080610ceb525080610c285280611a2152506127f16000f3fe608060405234801561001057600080fd5b50600436106101da5760003560e01c806388d695b211610104578063c3666c36116100a2578063e0df5b6f11610071578063e0df5b6f14610932578063eb795549146109a0578063f2fde38b14610a23578063f76f8d78146106af576101da565b8063c3666c361461079d578063cd0d0096146108ab578063d505accf146108b3578063dd62ed3e14610904576101da565b8063a3f4df7e116100de578063a3f4df7e146106af578063a457c2d7146106b7578063a9059cbb146106e3578063b88d4fde1461070f576101da565b806388d695b2146105c55780638da5cb5b1461068357806395d89b41146106a7576101da565b80633644e5151161017c578063572b6c051161014b578063572b6c051461044357806370a082311461046957806373c8a9581461048f5780637ecebe001461059f576101da565b80633644e5151461033957806339509351146103415780633c130d901461036d5780634885b25414610375576101da565b806318160ddd116101b857806318160ddd146102c357806323b872dd146102dd5780632e0f262514610313578063313ce56714610331576101da565b806301ffc9a7146101df57806306fdde031461021a578063095ea7b314610297575b600080fd5b610206600480360360208110156101f557600080fd5b50356001600160e01b031916610a49565b604080519115158252519081900360200190f35b610222610b22565b6040805160208082528351818301528351919283929083019185019080838360005b8381101561025c578181015183820152602001610244565b50505050905090810190601f1680156102895780820380516001836020036101000a031916815260200191505b509250505060405180910390f35b610206600480360360408110156102ad57600080fd5b506001600160a01b038135169060200135610bb8565b6102cb610bd5565b60408051918252519081900360200190f35b610206600480360360608110156102f357600080fd5b506001600160a01b03813581169160208101359091169060400135610bdb565b61031b610bfa565b6040805160ff9092168252519081900360200190f35b61031b610bff565b6102cb610c23565b6102066004803603604081101561035757600080fd5b506001600160a01b038135169060200135610d11565b610222610e7f565b6102066004803603606081101561038b57600080fd5b6001600160a01b038235169190810190604081016020820135600160201b8111156103b557600080fd5b8201836020820111156103c757600080fd5b803590602001918460208302840111600160201b831117156103e857600080fd5b919390929091602081019035600160201b81111561040557600080fd5b82018360208201111561041757600080fd5b803590602001918460208302840111600160201b8311171561043857600080fd5b509092509050610ee0565b6102066004803603602081101561045957600080fd5b50356001600160a01b03166111e2565b6102cb6004803603602081101561047f57600080fd5b50356001600160a01b031661125b565b61059d600480360360608110156104a557600080fd5b810190602081018135600160201b8111156104bf57600080fd5b8201836020820111156104d157600080fd5b803590602001918460208302840111600160201b831117156104f257600080fd5b919390929091602081019035600160201b81111561050f57600080fd5b82018360208201111561052157600080fd5b803590602001918460208302840111600160201b8311171561054257600080fd5b919390929091602081019035600160201b81111561055f57600080fd5b82018360208201111561057157600080fd5b803590602001918460208302840111600160201b8311171561059257600080fd5b509092509050611276565b005b6102cb600480360360208110156105b557600080fd5b50356001600160a01b0316611368565b610206600480360360408110156105db57600080fd5b810190602081018135600160201b8111156105f557600080fd5b82018360208201111561060757600080fd5b803590602001918460208302840111600160201b8311171561062857600080fd5b919390929091602081019035600160201b81111561064557600080fd5b82018360208201111561065757600080fd5b803590602001918460208302840111600160201b8311171561067857600080fd5b50909250905061137a565b61068b611657565b604080516001600160a01b039092168252519081900360200190f35b610222611666565b6102226116c4565b610206600480360360408110156106cd57600080fd5b506001600160a01b0381351690602001356116e7565b610206600480360360408110156106f957600080fd5b506001600160a01b038135169060200135611756565b6102066004803603608081101561072557600080fd5b6001600160a01b03823581169260208101359091169160408201359190810190608081016060820135600160201b81111561075f57600080fd5b82018360208201111561077157600080fd5b803590602001918460018302840111600160201b8311171561079257600080fd5b50909250905061176a565b61059d600480360360608110156107b357600080fd5b810190602081018135600160201b8111156107cd57600080fd5b8201836020820111156107df57600080fd5b803590602001918460208302840111600160201b8311171561080057600080fd5b919390929091602081019035600160201b81111561081d57600080fd5b82018360208201111561082f57600080fd5b803590602001918460208302840111600160201b8311171561085057600080fd5b919390929091602081019035600160201b81111561086d57600080fd5b82018360208201111561087f57600080fd5b803590602001918460208302840111600160201b831117156108a057600080fd5b5090925090506118d7565b6102cb611a1f565b61059d600480360360e08110156108c957600080fd5b506001600160a01b03813581169160208101359091169060408101359060608101359060ff6080820135169060a08101359060c00135611a43565b6102cb6004803603604081101561091a57600080fd5b506001600160a01b0381358116916020013516611c97565b61059d6004803603602081101561094857600080fd5b810190602081018135600160201b81111561096257600080fd5b82018360208201111561097457600080fd5b803590602001918460018302840111600160201b8311171561099557600080fd5b509092509050611cc2565b610206600480360360608110156109b657600080fd5b6001600160a01b0382351691602081013591810190606081016040820135600160201b8111156109e557600080fd5b8201836020820111156109f757600080fd5b803590602001918460018302840111600160201b83111715610a1857600080fd5b509092509050611cde565b61059d60048036036020811015610a3957600080fd5b50356001600160a01b0316611e49565b60006001600160e01b031982166301ffc9a760e01b1480610a7a57506001600160e01b031982166336372b0760e01b145b80610a9557506001600160e01b0319821663a219a02560e01b145b80610ab057506001600160e01b031982166303c130d960e41b145b80610acb57506001600160e01b03198216634e83a8c360e11b145b80610ae657506001600160e01b0319821663602993f360e11b145b80610b0157506001600160e01b031982166353f41a9760e01b145b80610b1c57506001600160e01b03198216634ec7fbed60e11b145b92915050565b60018054604080516020601f60026000196101008789161502019095169490940493840181900481028201810190925282815260609390929091830182828015610bad5780601f10610b8257610100808354040283529160200191610bad565b820191906000526020600020905b815481529060010190602001808311610b9057829003601f168201915b505050505090505b90565b6000610bcc610bc5611ea4565b8484611eb3565b50600192915050565b60065490565b6000610bf0610be8611ea4565b858585611f70565b5060019392505050565b601281565b7f000000000000000000000000000000000000000000000000000000000000000090565b6000467f00000000000000000000000000000000000000000000000000000000000000008114610ce95760018054604080516020600284861615610100026000190190941693909304601f8101849004840282018401909252818152610ce493859391929091830182828015610cda5780601f10610caf57610100808354040283529160200191610cda565b820191906000526020600020905b815481529060010190602001808311610cbd57829003601f168201915b5050505050611fa5565b610d0b565b7f00000000000000000000000000000000000000000000000000000000000000005b91505090565b60006001600160a01b038316610d6e576040805162461bcd60e51b815260206004820152601b60248201527f45524332303a207a65726f2061646472657373207370656e6465720000000000604482015290519081900360640190fd5b6000610d78611ea4565b6001600160a01b038082166000908152600560209081526040808320938916835292905220549091508315610e2957808401818111610dfe576040805162461bcd60e51b815260206004820152601960248201527f45524332303a20616c6c6f77616e6365206f766572666c6f7700000000000000604482015290519081900360640190fd5b6001600160a01b038084166000908152600560209081526040808320938a1683529290522081905590505b846001600160a01b0316826001600160a01b03167f8c5be1e5ebec7d5bd14f71427d1e84f3dd0314c0f7b2291e5b200ac8c7c3b925836040518082815260200191505060405180910390a3506001949350505050565b60038054604080516020601f6002600019610100600188161502019095169490940493840181900481028201810190925282815260609390929091830182828015610bad5780601f10610b8257610100808354040283529160200191610bad565b600083828114610f37576040805162461bcd60e51b815260206004820152601a60248201527f45524332303a20696e636f6e73697374656e7420617272617973000000000000604482015290519081900360640190fd5b6001600160a01b0387166000908152600460205260408120549080805b8481146111295760008a8a83818110610f6957fe5b905060200201356001600160a01b0316905060006001600160a01b0316816001600160a01b03161415610fdc576040805162461bcd60e51b815260206004820152601660248201527545524332303a20746f207a65726f206164647265737360501b604482015290519081900360640190fd5b6000898984818110610fea57fe5b905060200201359050806000146110d45784810185811161104b576040805162461bcd60e51b815260206004820152601660248201527545524332303a2076616c756573206f766572666c6f7760501b604482015290519081900360640190fd5b809550826001600160a01b03168e6001600160a01b03161461108a576001600160a01b03831660009081526004602052604090208054830190556110d2565b868211156110cd576040805162461bcd60e51b815260206004820152601b602482015260008051602061279c833981519152604482015290519081900360640190fd5b938101935b505b816001600160a01b03168d6001600160a01b03167fddf252ad1be2c89b69c2b068fc378daa952ba7f163c4a11628f55a4df523b3ef836040518082815260200191505060405180910390a35050600101610f54565b5081158015906111395750808214155b156111a157818303838110611183576040805162461bcd60e51b815260206004820152601b602482015260008051602061279c833981519152604482015290519081900360640190fd5b6001600160a01b038b16600090815260046020526040902090820190555b60006111ab611ea4565b9050806001600160a01b03168b6001600160a01b0316146111d1576111d18b828561202f565b5060019a9950505050505050505050565b60007f00000000000000000000000000000000000000000000000000000000000000006001600160a01b0316826001600160a01b03161480610b1c57507f00000000000000000000000000000000000000000000000000000000000000006001600160a01b0316826001600160a01b0316149050919050565b6001600160a01b031660009081526004602052604090205490565b611286611281611ea4565b61213e565b84838114801561129557508082145b6112e6576040805162461bcd60e51b815260206004820152601a60248201527f5265636f763a20696e636f6e73697374656e7420617272617973000000000000604482015290519081900360640190fd5b60005b81811461135e576113568888838181106112ff57fe5b905060200201356001600160a01b031685858481811061131b57fe5b9050602002013588888581811061132e57fe5b905060200201356001600160a01b03166001600160a01b03166121fe9092919063ffffffff16565b6001016112e9565b5050505050505050565b60006020819052908152604090205481565b6000838281146113d1576040805162461bcd60e51b815260206004820152601a60248201527f45524332303a20696e636f6e73697374656e7420617272617973000000000000604482015290519081900360640190fd5b60006113db611ea4565b6001600160a01b03811660009081526004602052604081205491925080805b8581146115cf5760008b8b8381811061140f57fe5b905060200201356001600160a01b0316905060006001600160a01b0316816001600160a01b03161415611482576040805162461bcd60e51b815260206004820152601660248201527545524332303a20746f207a65726f206164647265737360501b604482015290519081900360640190fd5b60008a8a8481811061149057fe5b9050602002013590508060001461157a578481018581116114f1576040805162461bcd60e51b815260206004820152601660248201527545524332303a2076616c756573206f766572666c6f7760501b604482015290519081900360640190fd5b809550826001600160a01b0316886001600160a01b031614611530576001600160a01b0383166000908152600460205260409020805483019055611578565b86821115611573576040805162461bcd60e51b815260206004820152601b602482015260008051602061279c833981519152604482015290519081900360640190fd5b938101935b505b816001600160a01b0316876001600160a01b03167fddf252ad1be2c89b69c2b068fc378daa952ba7f163c4a11628f55a4df523b3ef836040518082815260200191505060405180910390a350506001016113fa565b5081158015906115df5750808214155b1561164757818303838110611629576040805162461bcd60e51b815260206004820152601b602482015260008051602061279c833981519152604482015290519081900360640190fd5b6001600160a01b038516600090815260046020526040902090820190555b5060019998505050505050505050565b6007546001600160a01b031690565b60028054604080516020601f6000196101006001871615020190941685900493840181900481028201810190925282815260609390929091830182828015610bad5780601f10610b8257610100808354040283529160200191610bad565b604051806040016040528060078152602001665052494d41544560c81b81525081565b60006001600160a01b038316611744576040805162461bcd60e51b815260206004820152601b60248201527f45524332303a207a65726f2061646472657373207370656e6465720000000000604482015290519081900360640190fd5b610bcc61174f611ea4565b848461202f565b6000610bcc611763611ea4565b8484612250565b600080611775611ea4565b905061178381888888611f70565b611795866001600160a01b031661239e565b156118ca57634fc3585960e01b6001600160e01b031916866001600160a01b0316634fc35859838a8989896040518663ffffffff1660e01b815260040180866001600160a01b03168152602001856001600160a01b03168152602001848152602001806020018281038252848482818152602001925080828437600081840152601f19601f8201169050808301925050509650505050505050602060405180830381600087803b15801561184857600080fd5b505af115801561185c573d6000803e3d6000fd5b505050506040513d602081101561187257600080fd5b50516001600160e01b031916146118ca576040805162461bcd60e51b8152602060048201526017602482015276115490cc8c0e881d1c985b9cd9995c881c99599d5cd959604a1b604482015290519081900360640190fd5b5060019695505050505050565b6118e2611281611ea4565b8483811480156118f157508082145b611942576040805162461bcd60e51b815260206004820152601a60248201527f5265636f763a20696e636f6e73697374656e7420617272617973000000000000604482015290519081900360640190fd5b60005b81811461135e5785858281811061195857fe5b905060200201356001600160a01b03166001600160a01b03166323b872dd308a8a8581811061198357fe5b905060200201356001600160a01b031687878681811061199f57fe5b905060200201356040518463ffffffff1660e01b815260040180846001600160a01b03168152602001836001600160a01b031681526020018281526020019350505050600060405180830381600087803b1580156119fc57600080fd5b505af1158015611a10573d6000803e3d6000fd5b50505050806001019050611945565b7f000000000000000000000000000000000000000000000000000000000000000081565b6001600160a01b038716611a9e576040805162461bcd60e51b815260206004820152601960248201527f45524332303a207a65726f2061646472657373206f776e657200000000000000604482015290519081900360640190fd5b83421115611aeb576040805162461bcd60e51b8152602060048201526015602482015274115490cc8c0e88195e1c1a5c9959081c195c9b5a5d605a1b604482015290519081900360640190fd5b6001600160a01b0380881660008181526020818152604080832080546001810190915581517f6e71edae12b1b97f4d1f60370fef10105fa2faae0126114a169c64845d6126c98185015280830195909552948b166060850152608084018a905260a084019490945260c08084018990528451808503909101815260e09093019093528151919092012090611b7d610c23565b82604051602001808061190160f01b81525060020183815260200182815260200192505050604051602081830303815290604052805190602001209050600060018287878760405160008152602001604052604051808581526020018460ff1681526020018381526020018281526020019450505050506020604051602081039080840390855afa158015611c16573d6000803e3d6000fd5b505050602060405103519050896001600160a01b0316816001600160a01b031614611c80576040805162461bcd60e51b8152602060048201526015602482015274115490cc8c0e881a5b9d985b1a59081c195c9b5a5d605a1b604482015290519081900360640190fd5b611c8b8a8a8a611eb3565b50505050505050505050565b6001600160a01b03918216600090815260056020908152604080832093909416825291909152205490565b611ccd611281611ea4565b611cd9600383836126fa565b505050565b600080611ce9611ea4565b9050611cf6818787612250565b611d08866001600160a01b031661239e565b15611e3d57634fc3585960e01b6001600160e01b031916866001600160a01b0316634fc3585983848989896040518663ffffffff1660e01b815260040180866001600160a01b03168152602001856001600160a01b03168152602001848152602001806020018281038252848482818152602001925080828437600081840152601f19601f8201169050808301925050509650505050505050602060405180830381600087803b158015611dbb57600080fd5b505af1158015611dcf573d6000803e3d6000fd5b505050506040513d6020811015611de557600080fd5b50516001600160e01b03191614611e3d576040805162461bcd60e51b8152602060048201526017602482015276115490cc8c0e881d1c985b9cd9995c881c99599d5cd959604a1b604482015290519081900360640190fd5b50600195945050505050565b611e54611281611ea4565b600780546001600160a01b0319166001600160a01b0383811691821792839055604051919216907f8be0079c531659141344cd1fd0a4f28419497f9722a3daafe3b4186f6b6457e090600090a350565b6000611eae6123a4565b905090565b6001600160a01b038216611f0e576040805162461bcd60e51b815260206004820152601b60248201527f45524332303a207a65726f2061646472657373207370656e6465720000000000604482015290519081900360640190fd5b6001600160a01b03808416600081815260056020908152604080832094871680845294825291829020859055815185815291517f8c5be1e5ebec7d5bd14f71427d1e84f3dd0314c0f7b2291e5b200ac8c7c3b9259281900390910190a3505050565b611f7b838383612250565b836001600160a01b0316836001600160a01b031614611f9f57611f9f83858361202f565b50505050565b8051602091820120604080517f8b73c3c69bb8fe3d512ecc4cf759cc79239f7b179b0ffacaa9a75d522b39400f81850152808201929092527fc89efdaa54c0f20c7adf612882df0950f5a951637e0307cdcb4c672f298b8bc6606083015260808201939093523060a0808301919091528351808303909101815260c0909101909252815191012090565b6001600160a01b03808416600090815260056020908152604080832093861683529290522054600019811480159061206657508115155b156120ed578181038181106120c2576040805162461bcd60e51b815260206004820152601d60248201527f45524332303a20696e73756666696369656e7420616c6c6f77616e6365000000604482015290519081900360640190fd5b6001600160a01b03808616600090815260056020908152604080832093881683529290522081905590505b826001600160a01b0316846001600160a01b03167f8c5be1e5ebec7d5bd14f71427d1e84f3dd0314c0f7b2291e5b200ac8c7c3b925836040518082815260200191505060405180910390a350505050565b306001600160a01b0316638da5cb5b6040518163ffffffff1660e01b815260040160206040518083038186803b15801561217757600080fd5b505afa15801561218b573d6000803e3d6000fd5b505050506040513d60208110156121a157600080fd5b50516001600160a01b038281169116146121fb576040805162461bcd60e51b815260206004820152601660248201527527bbb730b136329d103737ba103a34329037bbb732b960511b604482015290519081900360640190fd5b50565b604080516001600160a01b038416602482015260448082018490528251808303909101815260649091019091526020810180516001600160e01b031663a9059cbb60e01b179052611cd9908490612504565b6001600160a01b0382166122a4576040805162461bcd60e51b815260206004820152601660248201527545524332303a20746f207a65726f206164647265737360501b604482015290519081900360640190fd5b801561234e576001600160a01b038316600090815260046020526040902054818103818110612308576040805162461bcd60e51b815260206004820152601b602482015260008051602061279c833981519152604482015290519081900360640190fd5b836001600160a01b0316856001600160a01b03161461234b576001600160a01b038086166000908152600460205260408082208490559186168152208054840190555b50505b816001600160a01b0316836001600160a01b03167fddf252ad1be2c89b69c2b068fc378daa952ba7f163c4a11628f55a4df523b3ef836040518082815260200191505060405180910390a3505050565b3b151590565b600033816123b06126ee565b90507f00000000000000000000000000000000000000000000000000000000000000006001600160a01b0316826001600160a01b0316148061242357507f00000000000000000000000000000000000000000000000000000000000000006001600160a01b0316826001600160a01b0316145b15612431579150610bb59050565b6001600160a01b03821632148015906124f057507f00000000000000000000000000000000000000000000000000000000000000006001600160a01b031663e60125d682846040518363ffffffff1660e01b815260040180836001600160a01b03168152602001826001600160a01b031681526020019250505060206040518083038186803b1580156124c357600080fd5b505afa1580156124d7573d6000803e3d6000fd5b505050506040513d60208110156124ed57600080fd5b50515b156124fe579150610bb59050565b50905090565b816125176001600160a01b03821661239e565b612568576040805162461bcd60e51b815260206004820152601a60248201527f4552433230577261707065723a206e6f6e2d636f6e7472616374000000000000604482015290519081900360640190fd5b600080826001600160a01b0316846040518082805190602001908083835b602083106125a55780518252601f199092019160209182019101612586565b6001836020036101000a0380198251168184511680821785525050505050509050019150506000604051808303816000865af19150503d8060008114612607576040519150601f19603f3d011682016040523d82523d6000602084013e61260c565b606091505b5091509150811561268b578051156126865780806020019051602081101561263357600080fd5b5051612686576040805162461bcd60e51b815260206004820152601e60248201527f4552433230577261707065723a206f7065726174696f6e206661696c65640000604482015290519081900360640190fd5b6126e7565b80516126de576040805162461bcd60e51b815260206004820152601e60248201527f4552433230577261707065723a206f7065726174696f6e206661696c65640000604482015290519081900360640190fd5b80518082602001fd5b5050505050565b60131936013560601c90565b828054600181600116156101000203166002900490600052602060002090601f0160209004810192826127305760008555612776565b82601f106127495782800160ff19823516178555612776565b82800160010185558215612776579182015b8281111561277657823582559160200191906001019061275b565b50612782929150612786565b5090565b5b80821115612782576000815560010161278756fe45524332303a20696e73756666696369656e742062616c616e63650000000000a26469706673582212201f9c631b722e0bd11309a56d5c35d0eefcf0557bb95f5a05add164a843e69f7264736f6c63430007060033",
  "devdoc": {
    "kind": "dev",
    "methods": {
      "DOMAIN_SEPARATOR()": {
        "details": "A common ERC-20 permit implementation choice for the `DOMAIN_SEPARATOR` is:  keccak256(      abi.encode(          keccak256(\"EIP712Domain(string name,string version,uint256 chainId,address verifyingContract)\"),          keccak256(bytes(name)),          keccak256(bytes(version)),          chainId,          address(this)))  where   - `name` (string) is the ERC-20 token name.   - `version` (string) refers to the ERC-20 token contract version.   - `chainId` (uint256) is the chain ID to which the ERC-20 token contract is deployed to.   - `verifyingContract` (address) is the ERC-20 token contract address.",
        "returns": {
          "_0": "the EIP-712 encoded hash struct of the domain-specific information for permits."
        }
      },
      "allowance(address,address)": {
        "params": {
          "owner": "The account that has granted an allowance to `spender`.",
          "spender": "The account that was granted an allowance by `owner`."
        },
        "returns": {
          "_0": "The amount which `spender` is allowed to spend on behalf of `owner`."
        }
      },
      "approve(address,uint256)": {
        "details": "Reverts if `spender` is the zero address.Emits the {IERC20-Approval} event.",
        "params": {
          "spender": "The account being granted the allowance by the message caller.",
          "value": "The allowance amount to grant."
        },
        "returns": {
          "_0": "True if the approval succeeds, false otherwise."
        }
      },
      "balanceOf(address)": {
        "params": {
          "owner": "The account whose balance will be returned."
        },
        "returns": {
          "_0": "The account balance of another account with address `owner`."
        }
      },
      "batchTransfer(address[],uint256[])": {
        "details": "Reverts if `recipients` and `amounts` have different lengths.Reverts if one of `recipients` is the zero address.Reverts if the caller has an insufficient balance.Emits an {IERC20-Transfer} event for each individual transfer.",
        "params": {
          "amounts": "the amounts of tokens to transfer to each of `recipients`.",
          "recipients": "the list of recipients to transfer the tokens to."
        },
        "returns": {
          "_0": "a boolean value indicating whether the operation succeeded."
        }
      },
      "batchTransferFrom(address,address[],uint256[])": {
        "details": "Reverts if `recipients` and `amounts` have different lengths.Reverts if one of `recipients` is the zero address.Reverts if `from` has an insufficient balance.Reverts if the sender is not `from` and has an insufficient allowance.Emits an {IERC20-Transfer} event for each individual transfer.Emits an {IERC20-Approval} event.",
        "params": {
          "amounts": "the amounts of tokens to transfer to each of `recipients`.",
          "from": "The address which owns the tokens to be transferred.",
          "recipients": "the list of recipients to transfer the tokens to."
        },
        "returns": {
          "_0": "a boolean value indicating whether the operation succeeded."
        }
      },
      "constructor": {
        "details": "Reverts if `values` and `recipients` have different lengths.Reverts if one of `recipients` is the zero address.Emits an {IERC20-Transfer} event for each transfer with `from` set to the zero address.",
        "params": {
          "forwarderRegistry": "Registry of approved meta-transaction forwarders.",
          "recipients": "the accounts to deliver the tokens to.",
          "universalForwarder": "Universal meta-transaction forwarder.",
          "values": "the amounts of tokens to mint to each of `recipients`."
        }
      },
      "decimals()": {
        "details": "Note: This information is only used for _display_ purposes: it does  not impact the arithmetic of the contract.",
        "returns": {
          "_0": "The number of decimals used to display the balances."
        }
      },
      "decreaseAllowance(address,uint256)": {
        "details": "Reverts if `spender` is the zero address.Reverts if `spender` has an allowance with the message caller for less than `value`.Emits an {IERC20-Approval} event with an updated allowance for `spender`.",
        "params": {
          "spender": "The account whose allowance is being decreased by the message caller.",
          "value": "The allowance amount decrease."
        },
        "returns": {
          "_0": "True if the allowance decrease succeeds, false otherwise."
        }
      },
      "increaseAllowance(address,uint256)": {
        "details": "Reverts if `spender` is the zero address.Reverts if `spender`'s allowance overflows.Emits an {IERC20-Approval} event with an updated allowance for `spender`.",
        "params": {
          "spender": "The account whose allowance is being increased by the message caller.",
          "value": "The allowance amount increase."
        },
        "returns": {
          "_0": "True if the allowance increase succeeds, false otherwise."
        }
      },
      "name()": {
        "returns": {
          "_0": "The name of the token."
        }
      },
      "permit(address,address,uint256,uint256,uint8,bytes32,bytes32)": {
        "details": "WARNING: The standard ERC-20 race condition for approvals applies to `permit()` as well: https://swcregistry.io/docs/SWC-114Reverts if `owner` is the zero address.Reverts if the current blocktime is > `deadline`.Reverts if `r`, `s`, and `v` is not a valid `secp256k1` signature from `owner`.Emits an {IERC20-Approval} event.",
        "params": {
          "deadline": "The deadline from which the permit signature is no longer valid.",
          "owner": "The token owner granting the allowance to `spender`.",
          "r": "Permit signature r parameter.",
          "s": "Permis signature s parameter.",
          "spender": "The token spender being granted the allowance by `owner`.",
          "v": "Permit signature v parameter",
          "value": "The token amount of the allowance."
        }
      },
      "recoverERC20s(address[],address[],uint256[])": {
        "details": "Reverts if the sender is not the contract owner.Reverts if `accounts`, `tokens` and `amounts` do not have the same length.Reverts if one of `tokens` is does not implement the ERC20 transfer function.Reverts if one of the ERC20 transfers fail for any reason.",
        "params": {
          "accounts": "the list of accounts to transfer the tokens to.",
          "amounts": "the list of token amounts to transfer.",
          "tokens": "the list of ERC20 token addresses."
        }
      },
      "recoverERC721s(address[],address[],uint256[])": {
        "details": "Reverts if the sender is not the contract owner.Reverts if `accounts`, `contracts` and `amounts` do not have the same length.Reverts if one of `contracts` is does not implement the ERC721 transferFrom function.Reverts if one of the ERC721 transfers fail for any reason.",
        "params": {
          "accounts": "the list of accounts to transfer the tokens to.",
          "contracts": "the list of ERC721 contract addresses.",
          "tokenIds": "the list of token ids to transfer."
        }
      },
      "safeTransfer(address,uint256,bytes)": {
        "details": "Reverts if `to` is the zero address.Reverts if `value` is greater than the sender's balance.Reverts if `to` is a contract which does not implement `onERC20Received(address,address,uint256,bytes)`.Reverts if `to` is a contract and the call to `onERC20Received(address,address,uint256,bytes)` returns a wrong value.Emits an {IERC20-Transfer} event.",
        "params": {
          "amount": "The amount of tokens to be transferred.",
          "data": "Optional additional data with no specified format, to be passed to the receiver contract.",
          "to": "The address for the tokens to be transferred to."
        },
        "returns": {
          "_0": "true."
        }
      },
      "safeTransferFrom(address,address,uint256,bytes)": {
        "details": "Reverts if `to` is the zero address.Reverts if `value` is greater than `from`'s balance.Reverts if the sender does not have at least `value` allowance by `from`.Reverts if `to` is a contract which does not implement `onERC20Received(address,address,uint256,bytes)`.Reverts if `to` is a contract and the call to `onERC20Received(address,address,uint256,bytes)` returns a wrong value.Emits an {IERC20-Transfer} event.",
        "params": {
          "amount": "The amount of tokens to be transferred.",
          "data": "Optional additional data with no specified format, to be passed to the receiver contract.",
          "from": "The address which owns the tokens to be transferred.",
          "to": "The address for the tokens to be transferred to."
        },
        "returns": {
          "_0": "true."
        }
      },
      "setTokenURI(string)": {
        "details": "Reverts if the sender is not the contract owner.",
        "params": {
          "tokenURI_": "the updated URI."
        }
      },
      "supportsInterface(bytes4)": {
        "details": "Returns true if this contract implements the interface defined by `interfaceId`. See the corresponding https://eips.ethereum.org/EIPS/eip-165#how-interfaces-are-identified[EIP section] to learn more about how these ids are created. This function call must use less than 30 000 gas."
      },
      "symbol()": {
        "returns": {
          "_0": "The symbol of the token."
        }
      },
      "tokenURI()": {
        "returns": {
          "_0": "a distinct Uniform Resource Identifier (URI) for the token metadata."
        }
      },
      "totalSupply()": {
        "returns": {
          "_0": "The total token supply."
        }
      },
      "transfer(address,uint256)": {
        "details": "Reverts if `to` is the zero address.Reverts if the sender does not have enough balance.Emits an {IERC20-Transfer} event.Transfers of 0 values are treated as normal transfers and fire the {IERC20-Transfer} event.",
        "params": {
          "to": "The receiver account.",
          "value": "The amount of tokens to transfer."
        },
        "returns": {
          "_0": "True if the transfer succeeds, false otherwise."
        }
      },
      "transferFrom(address,address,uint256)": {
        "details": "Reverts if `to` is the zero address.Reverts if `from` does not have at least `value` of balance.Reverts if the sender is not `from` and has not been approved by `from` for at least `value`.Emits an {IERC20-Transfer} event.Transfers of 0 values are treated as normal transfers and fire the {IERC20-Transfer} event.",
        "params": {
          "from": "The emitter account.",
          "to": "The receiver account.",
          "value": "The amount of tokens to transfer."
        },
        "returns": {
          "_0": "True if the transfer succeeds, false otherwise."
        }
      },
      "transferOwnership(address)": {
        "details": "Reverts if the sender is not the current contract owner.",
        "params": {
          "newOwner": "the address of the new owner. Use the zero address to renounce the ownership."
        }
      }
    },
    "title": "PrimateCoin",
    "version": 1
  },
  "userdoc": {
    "events": {
      "OwnershipTransferred(address,address)": {
        "notice": "Event emited when ownership of a contract changes."
      }
    },
    "kind": "user",
    "methods": {
      "DOMAIN_SEPARATOR()": {
        "notice": "Returns the EIP-712 encoded hash struct of the domain-specific information for permits."
      },
      "allowance(address,address)": {
        "notice": "Returns the amount which `spender` is allowed to spend on behalf of `owner`."
      },
      "approve(address,uint256)": {
        "notice": "Sets `value` as the allowance from the caller to `spender`.  IMPORTANT: Beware that changing an allowance with this method brings the risk  that someone may use both the old and the new allowance by unfortunate  transaction ordering. One possible solution to mitigate this race  condition is to first reduce the spender's allowance to 0 and set the  desired value afterwards: https://github.com/ethereum/EIPs/issues/20#issuecomment-263524729"
      },
      "balanceOf(address)": {
        "notice": "Returns the account balance of another account with address `owner`."
      },
      "batchTransfer(address[],uint256[])": {
        "notice": "Moves multiple `amounts` tokens from the caller's account to each of `recipients`."
      },
      "batchTransferFrom(address,address[],uint256[])": {
        "notice": "Moves multiple `amounts` tokens from an account to each of `recipients`."
      },
      "constructor": {
        "notice": "Constructor."
      },
      "decimals()": {
        "notice": "Returns the number of decimals used to display the balances. For example, if `decimals` equals `2`, a balance of `505` tokens should be displayed to a user as `5,05` (`505 / 10 ** 2`). Tokens usually opt for a value of 18, imitating the relationship between Ether and Wei."
      },
      "decreaseAllowance(address,uint256)": {
        "notice": "Decreases the allowance granted by the sender to `spender` by `value`.  This is an alternative to {approve} that can be used as a mitigation for  problems described in {IERC20-approve}."
      },
      "increaseAllowance(address,uint256)": {
        "notice": "Increases the allowance granted by the sender to `spender` by `value`.  This is an alternative to {approve} that can be used as a mitigation for  problems described in {IERC20-approve}."
      },
      "name()": {
        "notice": "Returns the name of the token. E.g. \"My Token\"."
      },
      "nonces(address)": {
        "notice": "Returns the current permit nonce of `owner`."
      },
      "owner()": {
        "notice": "Gets the address of the current contract owner."
      },
      "permit(address,address,uint256,uint256,uint8,bytes32,bytes32)": {
        "notice": "Sets `value` as the allowance of `spender` over the tokens of `owner`, given `owner` account's signed permit."
      },
      "recoverERC20s(address[],address[],uint256[])": {
        "notice": "Extract ERC20 tokens which were accidentally sent to the contract to a list of accounts. Warning: this function should be overriden for contracts which are supposed to hold ERC20 tokens so that the extraction is limited to only amounts sent accidentally."
      },
      "recoverERC721s(address[],address[],uint256[])": {
        "notice": "Extract ERC721 tokens which were accidentally sent to the contract to a list of accounts. Warning: this function should be overriden for contracts which are supposed to hold ERC721 tokens so that the extraction is limited to only tokens sent accidentally."
      },
      "safeTransfer(address,uint256,bytes)": {
        "notice": "Transfers tokens from the caller to `to`. If this address is a contract, then calls `onERC20Received(address,address,uint256,bytes)` on it."
      },
      "safeTransferFrom(address,address,uint256,bytes)": {
        "notice": "Transfers tokens from `from` to another address, using the allowance mechanism.  If this address is a contract, then calls `onERC20Received(address,address,uint256,bytes)` on it."
      },
      "setTokenURI(string)": {
        "notice": "Updates the URI of the token."
      },
      "symbol()": {
        "notice": "Returns the symbol of the token. E.g. \"HIX\"."
      },
      "tokenURI()": {
        "notice": "Returns a distinct Uniform Resource Identifier (URI) for the token metadata."
      },
      "totalSupply()": {
        "notice": "Returns the total token supply."
      },
      "transfer(address,uint256)": {
        "notice": "Transfers `value` amount of tokens to address `to`."
      },
      "transferFrom(address,address,uint256)": {
        "notice": "Transfers `value` amount of tokens from address `from` to address `to`."
      },
      "transferOwnership(address)": {
        "notice": "See {IERC173-transferOwnership(address)}"
      }
    },
    "version": 1
  },
  "storageLayout": {
    "storage": [
      {
        "astId": 58,
        "contract": "contracts/token/erc20/PrimateCoin.sol:PrimateCoin",
        "label": "nonces",
        "offset": 0,
        "slot": "0",
        "type": "t_mapping(t_address,t_uint256)"
      },
      {
        "astId": 60,
        "contract": "contracts/token/erc20/PrimateCoin.sol:PrimateCoin",
        "label": "_name",
        "offset": 0,
        "slot": "1",
        "type": "t_string_storage"
      },
      {
        "astId": 62,
        "contract": "contracts/token/erc20/PrimateCoin.sol:PrimateCoin",
        "label": "_symbol",
        "offset": 0,
        "slot": "2",
        "type": "t_string_storage"
      },
      {
        "astId": 66,
        "contract": "contracts/token/erc20/PrimateCoin.sol:PrimateCoin",
        "label": "_tokenURI",
        "offset": 0,
        "slot": "3",
        "type": "t_string_storage"
      },
      {
        "astId": 70,
        "contract": "contracts/token/erc20/PrimateCoin.sol:PrimateCoin",
        "label": "_balances",
        "offset": 0,
        "slot": "4",
        "type": "t_mapping(t_address,t_uint256)"
      },
      {
        "astId": 76,
        "contract": "contracts/token/erc20/PrimateCoin.sol:PrimateCoin",
        "label": "_allowances",
        "offset": 0,
        "slot": "5",
        "type": "t_mapping(t_address,t_mapping(t_address,t_uint256))"
      },
      {
        "astId": 78,
        "contract": "contracts/token/erc20/PrimateCoin.sol:PrimateCoin",
        "label": "_totalSupply",
        "offset": 0,
        "slot": "6",
        "type": "t_uint256"
      },
      {
        "astId": 1871,
        "contract": "contracts/token/erc20/PrimateCoin.sol:PrimateCoin",
        "label": "_owner",
        "offset": 0,
        "slot": "7",
        "type": "t_address"
      }
    ],
    "types": {
      "t_address": {
        "encoding": "inplace",
        "label": "address",
        "numberOfBytes": "20"
      },
      "t_mapping(t_address,t_mapping(t_address,t_uint256))": {
        "encoding": "mapping",
        "key": "t_address",
        "label": "mapping(address => mapping(address => uint256))",
        "numberOfBytes": "32",
        "value": "t_mapping(t_address,t_uint256)"
      },
      "t_mapping(t_address,t_uint256)": {
        "encoding": "mapping",
        "key": "t_address",
        "label": "mapping(address => uint256)",
        "numberOfBytes": "32",
        "value": "t_uint256"
      },
      "t_string_storage": {
        "encoding": "bytes",
        "label": "string",
        "numberOfBytes": "32"
      },
      "t_uint256": {
        "encoding": "inplace",
        "label": "uint256",
        "numberOfBytes": "32"
      }
    }
  }
}